{
  "_format": "hh-sol-artifact-1",
  "contractName": "WxMR",
  "sourceName": "contracts/wxMR.sol",
  "abi": [
    {
      "inputs": [
        {
          "internalType": "address",
          "name": "_verifier",
          "type": "address"
        },
        {
          "internalType": "bytes32",
          "name": "_imageId",
          "type": "bytes32"
        },
        {
          "internalType": "string",
          "name": "_name",
          "type": "string"
        },
        {
          "internalType": "string",
          "name": "_symbol",
          "type": "string"
        }
      ],
      "stateMutability": "nonpayable",
      "type": "constructor"
    },
    {
      "anonymous": false,
      "inputs": [
        {
          "indexed": true,
          "internalType": "address",
          "name": "owner",
          "type": "address"
        },
        {
          "indexed": true,
          "internalType": "address",
          "name": "spender",
          "type": "address"
        },
        {
          "indexed": false,
          "internalType": "uint256",
          "name": "value",
          "type": "uint256"
        }
      ],
      "name": "Approval",
      "type": "event"
    },
    {
      "anonymous": false,
      "inputs": [
        {
          "indexed": true,
          "internalType": "bytes32",
          "name": "eventId",
          "type": "bytes32"
        },
        {
          "indexed": true,
          "internalType": "address",
          "name": "from",
          "type": "address"
        },
        {
          "indexed": false,
          "internalType": "uint256",
          "name": "amount",
          "type": "uint256"
        }
      ],
      "name": "Burn",
      "type": "event"
    },
    {
      "anonymous": false,
      "inputs": [
        {
          "indexed": true,
          "internalType": "bytes32",
          "name": "KI",
          "type": "bytes32"
        },
        {
          "indexed": true,
          "internalType": "address",
          "name": "to",
          "type": "address"
        },
        {
          "indexed": false,
          "internalType": "uint256",
          "name": "amount",
          "type": "uint256"
        }
      ],
      "name": "Mint",
      "type": "event"
    },
    {
      "anonymous": false,
      "inputs": [
        {
          "indexed": true,
          "internalType": "address",
          "name": "from",
          "type": "address"
        },
        {
          "indexed": true,
          "internalType": "address",
          "name": "to",
          "type": "address"
        },
        {
          "indexed": false,
          "internalType": "uint256",
          "name": "value",
          "type": "uint256"
        }
      ],
      "name": "Transfer",
      "type": "event"
    },
    {
      "inputs": [
        {
          "internalType": "address",
          "name": "owner",
          "type": "address"
        },
        {
          "internalType": "address",
          "name": "spender",
          "type": "address"
        }
      ],
      "name": "allowance",
      "outputs": [
        {
          "internalType": "uint256",
          "name": "",
          "type": "uint256"
        }
      ],
      "stateMutability": "view",
      "type": "function"
    },
    {
      "inputs": [
        {
          "internalType": "address",
          "name": "spender",
          "type": "address"
        },
        {
          "internalType": "uint256",
          "name": "amount",
          "type": "uint256"
        }
      ],
      "name": "approve",
      "outputs": [
        {
          "internalType": "bool",
          "name": "",
          "type": "bool"
        }
      ],
      "stateMutability": "nonpayable",
      "type": "function"
    },
    {
      "inputs": [
        {
          "internalType": "address",
          "name": "account",
          "type": "address"
        }
      ],
      "name": "balanceOf",
      "outputs": [
        {
          "internalType": "uint256",
          "name": "",
          "type": "uint256"
        }
      ],
      "stateMutability": "view",
      "type": "function"
    },
    {
      "inputs": [
        {
          "internalType": "uint256",
          "name": "amount",
          "type": "uint256"
        }
      ],
      "name": "burn",
      "outputs": [],
      "stateMutability": "nonpayable",
      "type": "function"
    },
    {
      "inputs": [],
      "name": "decimals",
      "outputs": [
        {
          "internalType": "uint8",
          "name": "",
          "type": "uint8"
        }
      ],
      "stateMutability": "view",
      "type": "function"
    },
    {
      "inputs": [
        {
          "internalType": "address",
          "name": "spender",
          "type": "address"
        },
        {
          "internalType": "uint256",
          "name": "subtractedValue",
          "type": "uint256"
        }
      ],
      "name": "decreaseAllowance",
      "outputs": [
        {
          "internalType": "bool",
          "name": "",
          "type": "bool"
        }
      ],
      "stateMutability": "nonpayable",
      "type": "function"
    },
    {
      "inputs": [],
      "name": "imageId",
      "outputs": [
        {
          "internalType": "bytes32",
          "name": "",
          "type": "bytes32"
        }
      ],
      "stateMutability": "view",
      "type": "function"
    },
    {
      "inputs": [
        {
          "internalType": "address",
          "name": "spender",
          "type": "address"
        },
        {
          "internalType": "uint256",
          "name": "addedValue",
          "type": "uint256"
        }
      ],
      "name": "increaseAllowance",
      "outputs": [
        {
          "internalType": "bool",
          "name": "",
          "type": "bool"
        }
      ],
      "stateMutability": "nonpayable",
      "type": "function"
    },
    {
      "inputs": [
        {
          "internalType": "bytes",
          "name": "seal",
          "type": "bytes"
        },
        {
          "internalType": "uint256",
          "name": "amount",
          "type": "uint256"
        },
        {
          "internalType": "bytes32",
          "name": "KI_hash",
          "type": "bytes32"
        },
        {
          "internalType": "uint256",
          "name": "amount_commit",
          "type": "uint256"
        }
      ],
      "name": "mint",
      "outputs": [],
      "stateMutability": "nonpayable",
      "type": "function"
    },
    {
      "inputs": [],
      "name": "name",
      "outputs": [
        {
          "internalType": "string",
          "name": "",
          "type": "string"
        }
      ],
      "stateMutability": "view",
      "type": "function"
    },
    {
      "inputs": [],
      "name": "owner",
      "outputs": [
        {
          "internalType": "address",
          "name": "",
          "type": "address"
        }
      ],
      "stateMutability": "view",
      "type": "function"
    },
    {
      "inputs": [
        {
          "internalType": "address",
          "name": "_verifier",
          "type": "address"
        }
      ],
      "name": "setVerifier",
      "outputs": [],
      "stateMutability": "nonpayable",
      "type": "function"
    },
    {
      "inputs": [
        {
          "internalType": "bytes32",
          "name": "",
          "type": "bytes32"
        }
      ],
      "name": "spent",
      "outputs": [
        {
          "internalType": "bool",
          "name": "",
          "type": "bool"
        }
      ],
      "stateMutability": "view",
      "type": "function"
    },
    {
      "inputs": [],
      "name": "symbol",
      "outputs": [
        {
          "internalType": "string",
          "name": "",
          "type": "string"
        }
      ],
      "stateMutability": "view",
      "type": "function"
    },
    {
      "inputs": [],
      "name": "totalSupply",
      "outputs": [
        {
          "internalType": "uint256",
          "name": "",
          "type": "uint256"
        }
      ],
      "stateMutability": "view",
      "type": "function"
    },
    {
      "inputs": [
        {
          "internalType": "address",
          "name": "to",
          "type": "address"
        },
        {
          "internalType": "uint256",
          "name": "amount",
          "type": "uint256"
        }
      ],
      "name": "transfer",
      "outputs": [
        {
          "internalType": "bool",
          "name": "",
          "type": "bool"
        }
      ],
      "stateMutability": "nonpayable",
      "type": "function"
    },
    {
      "inputs": [
        {
          "internalType": "address",
          "name": "from",
          "type": "address"
        },
        {
          "internalType": "address",
          "name": "to",
          "type": "address"
        },
        {
          "internalType": "uint256",
          "name": "amount",
          "type": "uint256"
        }
      ],
      "name": "transferFrom",
      "outputs": [
        {
          "internalType": "bool",
          "name": "",
          "type": "bool"
        }
      ],
      "stateMutability": "nonpayable",
      "type": "function"
    },
    {
      "inputs": [],
      "name": "verifier",
      "outputs": [
        {
          "internalType": "address",
          "name": "",
          "type": "address"
        }
      ],
      "stateMutability": "view",
      "type": "function"
    }
  ],
  "bytecode": "0x60a06040523480156200001157600080fd5b506040516200128b3803806200128b833981016040819052620000349162000147565b818160036200004483826200026a565b5060046200005382826200026a565b5050600680546001600160a01b0319166001600160a01b03969096169590951790945550506080525062000336565b634e487b7160e01b600052604160045260246000fd5b600082601f830112620000aa57600080fd5b81516001600160401b0380821115620000c757620000c762000082565b604051601f8301601f19908116603f01168101908282118183101715620000f257620000f262000082565b816040528381526020925086838588010111156200010f57600080fd5b600091505b8382101562000133578582018301518183018401529082019062000114565b600093810190920192909252949350505050565b600080600080608085870312156200015e57600080fd5b84516001600160a01b03811681146200017657600080fd5b6020860151604087015191955093506001600160401b03808211156200019b57600080fd5b620001a98883890162000098565b93506060870151915080821115620001c057600080fd5b50620001cf8782880162000098565b91505092959194509250565b600181811c90821680620001f057607f821691505b6020821081036200021157634e487b7160e01b600052602260045260246000fd5b50919050565b601f8211156200026557600081815260208120601f850160051c81016020861015620002405750805b601f850160051c820191505b8181101562000261578281556001016200024c565b5050505b505050565b81516001600160401b0381111562000286576200028662000082565b6200029e81620002978454620001db565b8462000217565b602080601f831160018114620002d65760008415620002bd5750858301515b600019600386901b1c1916600185901b17855562000261565b600085815260208120601f198616915b828110156200030757888601518255948401946001909101908401620002e6565b5085821015620003265787850151600019600388901b60f8161c191681555b5050505050600190811b01905550565b608051610f3262000359600039600081816102ac01526105ba0152610f326000f3fe608060405234801561001057600080fd5b50600436106101165760003560e01c806370a08231116100a2578063a9059cbb11610071578063a9059cbb1461024b578063ae20bed31461025e578063c6888e5714610281578063dd62ed3e14610294578063ef3f7dd5146102a757600080fd5b806370a08231146101f65780638da5cb5b1461021f57806395d89b4114610230578063a457c2d71461023857600080fd5b80632b7ac3f3116100e95780632b7ac3f314610181578063313ce567146101ac57806339509351146101bb57806342966c68146101ce5780635437988d146101e357600080fd5b806306fdde031461011b578063095ea7b31461013957806318160ddd1461015c57806323b872dd1461016e575b600080fd5b6101236102ce565b6040516101309190610ca5565b60405180910390f35b61014c610147366004610cdb565b610360565b6040519015158152602001610130565b6002545b604051908152602001610130565b61014c61017c366004610d05565b61037a565b600654610194906001600160a01b031681565b6040516001600160a01b039091168152602001610130565b60405160128152602001610130565b61014c6101c9366004610cdb565b61039e565b6101e16101dc366004610d41565b6103c0565b005b6101e16101f1366004610d5a565b61045f565b610160610204366004610d5a565b6001600160a01b031660009081526020819052604090205490565b6007546001600160a01b0316610194565b6101236104cd565b61014c610246366004610cdb565b6104dc565b61014c610259366004610cdb565b610557565b61014c61026c366004610d41565b60056020526000908152604090205460ff1681565b6101e161028f366004610d75565b610565565b6101606102a2366004610dfd565b61070f565b6101607f000000000000000000000000000000000000000000000000000000000000000081565b6060600380546102dd90610e30565b80601f016020809104026020016040519081016040528092919081815260200182805461030990610e30565b80156103565780601f1061032b57610100808354040283529160200191610356565b820191906000526020600020905b81548152906001019060200180831161033957829003601f168201915b5050505050905090565b60003361036e81858561073a565b60019150505b92915050565b60003361038885828561085f565b6103938585856108d9565b506001949350505050565b60003361036e8185856103b1838361070f565b6103bb9190610e6a565b61073a565b6000424333846040516020016104019493929190938452602084019290925260601b6bffffffffffffffffffffffff19166040830152605482015260740190565b6040516020818303038152906040528051906020012090506104233383610a7d565b604051828152339082907fef34acdef9fbd8b76e4a732a065d5b405991accf20547c069c13338966af3290906020015b60405180910390a35050565b6007546001600160a01b031633146104ab5760405162461bcd60e51b815260206004820152600a60248201526927b7363c9037bbb732b960b11b60448201526064015b60405180910390fd5b600680546001600160a01b0319166001600160a01b0392909216919091179055565b6060600480546102dd90610e30565b600033816104ea828661070f565b90508381101561054a5760405162461bcd60e51b815260206004820152602560248201527f45524332303a2064656372656173656420616c6c6f77616e63652062656c6f77604482015264207a65726f60d81b60648201526084016104a2565b610393828686840361073a565b60003361036e8185856108d9565b6040805160208101849052808201839052600160f81b606082015281516041818303018152606182019283905260065462495a6360e31b909352916001600160a01b03169063024ad318906105e490899089907f0000000000000000000000000000000000000000000000000000000000000000908790606501610e8b565b602060405180830381865afa158015610601573d6000803e3d6000fd5b505050506040513d601f19601f820116820180604052508101906106259190610eda565b6106635760405162461bcd60e51b815260206004820152600f60248201526e1a5b9d985b1a59081c9958d95a5c1d608a1b60448201526064016104a2565b60008381526005602052604090205460ff16156106ad5760405162461bcd60e51b815260206004820152600860248201526712d2481cdc195b9d60c21b60448201526064016104a2565b6000838152600560205260409020805460ff191660011790556106d03385610ba7565b604051848152339084907ff0bcd414edc501835c6c541058514fe45a43fa62a41671c9f62317c9889fcf7f9060200160405180910390a3505050505050565b6001600160a01b03918216600090815260016020908152604080832093909416825291909152205490565b6001600160a01b03831661079c5760405162461bcd60e51b8152602060048201526024808201527f45524332303a20617070726f76652066726f6d20746865207a65726f206164646044820152637265737360e01b60648201526084016104a2565b6001600160a01b0382166107fd5760405162461bcd60e51b815260206004820152602260248201527f45524332303a20617070726f766520746f20746865207a65726f206164647265604482015261737360f01b60648201526084016104a2565b6001600160a01b0383811660008181526001602090815260408083209487168084529482529182902085905590518481527f8c5be1e5ebec7d5bd14f71427d1e84f3dd0314c0f7b2291e5b200ac8c7c3b92591015b60405180910390a3505050565b600061086b848461070f565b905060001981146108d357818110156108c65760405162461bcd60e51b815260206004820152601d60248201527f45524332303a20696e73756666696369656e7420616c6c6f77616e636500000060448201526064016104a2565b6108d3848484840361073a565b50505050565b6001600160a01b03831661093d5760405162461bcd60e51b815260206004820152602560248201527f45524332303a207472616e736665722066726f6d20746865207a65726f206164604482015264647265737360d81b60648201526084016104a2565b6001600160a01b03821661099f5760405162461bcd60e51b815260206004820152602360248201527f45524332303a207472616e7366657220746f20746865207a65726f206164647260448201526265737360e81b60648201526084016104a2565b6001600160a01b03831660009081526020819052604090205481811015610a175760405162461bcd60e51b815260206004820152602660248201527f45524332303a207472616e7366657220616d6f756e7420657863656564732062604482015265616c616e636560d01b60648201526084016104a2565b6001600160a01b03848116600081815260208181526040808320878703905593871680835291849020805487019055925185815290927fddf252ad1be2c89b69c2b068fc378daa952ba7f163c4a11628f55a4df523b3ef910160405180910390a36108d3565b6001600160a01b038216610add5760405162461bcd60e51b815260206004820152602160248201527f45524332303a206275726e2066726f6d20746865207a65726f206164647265736044820152607360f81b60648201526084016104a2565b6001600160a01b03821660009081526020819052604090205481811015610b515760405162461bcd60e51b815260206004820152602260248201527f45524332303a206275726e20616d6f756e7420657863656564732062616c616e604482015261636560f01b60648201526084016104a2565b6001600160a01b0383166000818152602081815260408083208686039055600280548790039055518581529192917fddf252ad1be2c89b69c2b068fc378daa952ba7f163c4a11628f55a4df523b3ef9101610852565b6001600160a01b038216610bfd5760405162461bcd60e51b815260206004820152601f60248201527f45524332303a206d696e7420746f20746865207a65726f20616464726573730060448201526064016104a2565b8060026000828254610c0f9190610e6a565b90915550506001600160a01b038216600081815260208181526040808320805486019055518481527fddf252ad1be2c89b69c2b068fc378daa952ba7f163c4a11628f55a4df523b3ef9101610453565b6000815180845260005b81811015610c8557602081850181015186830182015201610c69565b506000602082860101526020601f19601f83011685010191505092915050565b602081526000610cb86020830184610c5f565b9392505050565b80356001600160a01b0381168114610cd657600080fd5b919050565b60008060408385031215610cee57600080fd5b610cf783610cbf565b946020939093013593505050565b600080600060608486031215610d1a57600080fd5b610d2384610cbf565b9250610d3160208501610cbf565b9150604084013590509250925092565b600060208284031215610d5357600080fd5b5035919050565b600060208284031215610d6c57600080fd5b610cb882610cbf565b600080600080600060808688031215610d8d57600080fd5b853567ffffffffffffffff80821115610da557600080fd5b818801915088601f830112610db957600080fd5b813581811115610dc857600080fd5b896020828501011115610dda57600080fd5b60209283019a909950918801359760408101359750606001359550909350505050565b60008060408385031215610e1057600080fd5b610e1983610cbf565b9150610e2760208401610cbf565b90509250929050565b600181811c90821680610e4457607f821691505b602082108103610e6457634e487b7160e01b600052602260045260246000fd5b50919050565b8082018082111561037457634e487b7160e01b600052601160045260246000fd5b60608152836060820152838560808301376000608085830101526000601f19601f86011682018460208401526080838203016040840152610ecf6080820185610c5f565b979650505050505050565b600060208284031215610eec57600080fd5b81518015158114610cb857600080fdfea26469706673582212206b3bdfb2c20a92a5b14ceb6ed5c5cd38a510c75dcb193f1f3bd6bd43fa38d2dd64736f6c63430008130033",
  "linkReferences": {},
  "deployedLinkReferences": {}
}